:020000040800F2
:1000000048050020D5010008D9010008DB010008DF
:10001000DD010008DF010008E10100080000000028
:10002000000000000000000000000000E3010008E4
:10003000E501000800000000E7010008E9010008F0
:10004000EB010008EB010008EB010008EB010008E0
:10005000EB010008EB010008EB010008EB010008D0
:10006000EB010008EB010008EB010008EB010008C0
:10007000EB010008EB010008EB010008EB010008B0
:10008000EB010008EB010008EB010008EB010008A0
:10009000EB010008EB010008EB010008EB01000890
:1000A000EB010008EB010008EB010008EB01000880
:1000B000EB010008EB010008EB010008EB01000870
:1000C000EB010008EB010008EB010008EB01000860
:1000D000EB0100088D4B0008EB010008EB01000864
:1000E000EB010008EB010008EB010008EB01000840
:1000F000EB010008EB010008EB010008EB01000830
:10010000EB010008EB010008EB010008EB0100081F
:10011000EB010008EB010008EB010008EB0100080F
:10012000EB010008EB010008EB010008EB010008FF
:1001300000F002F800F03FF80AA090E8000C8244BA
:100140008344AAF10107DA4501D100F034F8AFF297
:10015000090EBAE80F0013F0010F18BFFB1A43F0A5
:1001600001031847286D0000486D0000103A24BFB5
:1001700078C878C1FAD8520724BF30C830C144BF0C
:1001800004680C607047000000230024002500264E
:10019000103A28BF78C1FBD8520728BF30C148BFEA
:1001A0000B607047782900F07180002070471FB500
:1001B0001FBD10B510BD00F025F91146FFF7F7FF80
:1001C00004F094FD00F043F903B4FFF7F2FF03BC21
:1001D00004F01EFD08480047FEE7FEE7FEE7FEE7E5
:1001E000FEE7FEE7FEE7FEE7FEE7FEE70348044919
:1001F000024A044B7047000031010008480100200A
:100200004805002048010020704700000FB4044951
:1002100010B503AA029800F0C7F810BC5DF814FBF3
:10022000080000202DE9F0410E460446002020621F
:100230002046E168884730B3252805D0D4E901215C
:100240009047206A401CF2E7E16820460027884773
:10025000050018D0A5F14100192802D820354FF427
:1002600000673246294620462760FFF79BFF40B1D2
:10027000012804D0F61D26F007060836D8E7361DFB
:10028000D6E72846DAE7206ABDE8F08170B5044673
:100290000D4621461068AFF300802188090502D57C
:1002A000104A7A4402E00F4A7A440E32002104F1E7
:1002B000240307E000F00F064FEA1010965D5E542D
:1002C00001F101010028F5D103462078000704D58B
:1002D000702D02D009B1113202232046BDE87040D2
:1002E00000F006B8BC6B000070477047704770475D
:1002F0002DE9F0470D4699469246044600F1240840
:100300000168880604D5E06921F01001216000E051
:100310000120A84202DDA0EB050700E00027A1694B
:1003200007EB050202EB0900A1EB0000A0612078B9
:10033000C00602D42046AFF30080002608E0D4E9CE
:1003400001211AF806009047206A401C761C2062A2
:100350004E45F4DB2078C0060AD52046AFF3008076
:1003600006E0D4E9012130209047206A401C206239
:10037000381EA7F10107F4DC07E0D4E9012118F8E1
:1003800005009047206A401C2062281EA5F1010547
:10039000F3DC2046AFF300802078000602D502206F
:1003A000BDE8F0870120FBE7074B70B50D467B44A5
:1003B00000F011F80446284600F020F810B14FF084
:1003C000FF3070BD204670BD1F49000001694A1C06
:1003D00002610878704700B58FB0CDE90131002186
:1003E000059105497944CDE9031011466846FFF7A8
:1003F00019FF0FB000BD0000E5FFFFFF007B00F01C
:1004000080007047754600F029F8AE460500694641
:10041000534620F00700854618B020B5FFF7E6FEEA
:10042000BDE820404FF000064FF000074FF00008F5
:100430004FF0000B21F00701AC46ACE8C009ACE876
:10044000C009ACE8C009ACE8C0098D467047044655
:10045000AFF300802046FFF7B7FE0000004870476A
:10046000E80000204B48806940F004004949886159
:100470004948006820F0F000474908604548806915
:1004800040F40070434988610846C06840F4007039
:10049000C8600846C06820F40070C860084640681C
:1004A00020F4404048600846406840F400404860FE
:1004B0003A4800683A4908403849086008460068E8
:1004C00008600846006820F480700860081D006815
:1004D00020F00200091D08600846006820F4602032
:1004E00008600846006840F460200860084600681C
:1004F00040F4801008600846006820F4006008603E
:100500000846006840F4000008602448283000686D
:1005100020F470002149283108600846006808600E
:100520001E480C30006820F038001C490C3108606F
:100530000846006840F038000860081F006820F492
:10054000E040091F08600846006840F4E040086089
:10055000081F006840F00100091F08600846006895
:1005600040F00800086000BF0C48001D006810F053
:10057000080FF9D10948001D006840F00400074940
:10058000091D086000BF0548001D006810F0040F39
:10059000F9D17047001002400008014004240140D6
:1005A000FFFFF00001460F48006820F01F000D4AD1
:1005B000106010460068084310600A482C38006834
:1005C00040F48000074A2C3A106000BF05483438D8
:1005D000006810F0020FF9D002481830006880B2AD
:1005E000704700003424014070B5044600261748C7
:1005F00005884088454315488088A0F5D0410439D6
:1006000016D112488079012812D100200F49887133
:100610002A2048812B2088810021084603F060FFB2
:1006200001200A4988712B2048812A20888103E013
:100630000021084603F054FF04F056F9002602E0BA
:1006400003480480761CAE42FAD370BDD800002067
:100650000008006C10B50446002C66D16C49887106
:10066000F02008804FF4A070488008468088A0F5EC
:10067000134141390BD066488088A0F5D041043938
:1006800005D063488088A0F5A64110391AD12C20E6
:100690005F4908812A2048812B208881084680886C
:1006A000A0F5D041043905D059488088A0F5A6416D
:1006B000103906D14FF4A070554908804FF4F070FE
:1006C0004880A1E052488088A0F5AA41103910D195
:1006D0004FF430504E4908814FF4285048814FF470
:1006E0002C5088814FF4F07008804FF44870488097
:1006F0008AE047488088A0F5C85163390DD12C2085
:10070000434908812B2048812A2088814FF4F070CA
:1007100008804FF44870488076E022203C490881E8
:1007200020204881212088816EE00120384988718D
:100730004FF4A0700880F020488008468088A0F51B
:100740001341413905D032488088A0F5A6411039BF
:1007500007D12C202E4908812A2048812B2088810E
:100760003FE02B488088A0F5D041043907D12C20E8
:10077000274908812B2048812A20888131E024489C
:100780008088A0F5AA41103910D14FF4305020498B
:1007900008814FF4285048814FF42C5088814FF441
:1007A000487008804FF4F07048801AE0184880883C
:1007B000A0F5C85163390DD12C20154908812A2094
:1007C00048812B2088814FF4487008804FF4F070E6
:1007D000488006E022200E490881212048812020FF
:1007E00088810B488088A0F5D041043905D008489D
:1007F0008088A0F5A641103906D14FF4F070044965
:1008000008804FF4A0704880002003F0F3FC10BD76
:10081000D800002030B503460C4615465A4880885B
:10082000A0F51341413905D057488088A0F5A6416D
:10083000103914D15449488904F050F8181204F0C2
:1008400047F8D8B204F044F84F49888904F046F8D4
:10085000201204F03DF8E0B204F03AF88CE04A4887
:100860008088A0F5AA41103920D14749488904F071
:1008700035F8181204F02CF843494989491C88B20C
:1008800004F02CF8D8B204F023F83F49888904F02A
:1008900025F8201204F01CF83B498989491C88B2CC
:1008A00004F01CF8E0B204F013F865E036488088E4
:1008B000A0F5C851633928D13348807920B932482E
:1008C0000088401EC01A83B22F49488904F006F8F8
:1008D000181203F0FDFFD8B203F0FAFF181203F06C
:1008E000F7FFD8B203F0F4FF2749888903F0F6FF39
:1008F000201203F0EDFFE0B203F0EAFF201203F054
:10090000E7FFE0B203F0E4FF36E01F488088A0F57F
:10091000D04104391DD11C488079012804D11A48DE
:100920000088401EC01A83B21749488903F0D6FFD9
:10093000181203F0CDFFD8B203F0CAFF124988891C
:1009400003F0CCFF201203F0C3FFE0B203F0C0FFBE
:1009500012E00D488079012804D10B480088401E20
:10096000C01A83B208494889194603F0C7FF0649EF
:100970008889214603F0C2FF0348008903490880A3
:10098000881C058030BD0000D8000020FE07006CE8
:1009900010B5FE48406940F48070FC494861084643
:1009A000806940F0080088610846806940F02000B6
:1009B00088610846806940F0400088610846806987
:1009C00040F480708861F248006820F00F00F04920
:1009D00008600846006840F003000860ED480068C1
:1009E000ED490840EB49086008460068EB490843B8
:1009F000E8490860081F006800F0FF20091F086030
:100A00000846006840F0BB100860E5480068002018
:100A1000E34908600846006840F0BB300860081FE2
:100A2000006820F07040091F08600846006840F028
:100A300030400860DB48406820F47020D9494860A5
:100A40000846406840F4302048600846006820F0BE
:100A50000F0008600846006840F00B0008600020A6
:100A60004FF020418861C861CF4908604FF02040B5
:100A7000806940F480504FF02041886108468069C9
:100A800040F4804088610846806940F01000886129
:100A90000846C069C8610846C06940F00100C861E5
:100AA0000846C06940F47060C861BF480068C1F87A
:100AB0001C01BD480068C1F81C010846D0F81C01A3
:100AC00040F44070C1F81C010846806940F0010004
:100AD00088614FF0320004F0BFF8002003F054FBAF
:100AE000B249888008468088FF280ADB084680884B
:100AF000A0F57F41FF3904D0AC488088B0F5134F92
:100B00007ED1D32003F0EAFE03F034FBA7498880AE
:100B100003F030FBA549888003F02CFBA3498880B3
:100B2000084680884FF6FF7101EA00209F498880BF
:100B300003F020FB9D49898808439C49888008462A
:100B40008088A0F5134141395AD0BF2003F0C6FE7A
:100B500003F010FB9549888003F00CFB93498880D3
:100B600003F008FB9149888003F004FB8F498880DB
:100B7000084680884FF6FF7101EA00208B49888083
:100B800003F0F8FA8949898808438849888008462B
:100B90008088A0F5D04104397AD0D42003F09EFE9D
:100BA00003F0E8FA8149888003F0E4FA7F498880FD
:100BB00003F0E0FA7D498880084680884FF6FF718F
:100BC00001EA00207949888003F0D4FA77498988BE
:100BD00008437649888008468088A0F5A6411039E8
:100BE00056D04FF45A4003F079FE03F0C3FA6F4930
:100BF00088804FF45B4003F071FE03F0BBFA00E025
:100C000046E06A498880084680884FF6FF7101EA0D
:100C10000020664988804FF45C4003F05FFE03F0DB
:100C2000A9FA624989880843604988800846808813
:100C3000B0F5004F02D145F2105088805B488088A3
:100C4000A0F5AA41103923D0A12003F047FE03F0FC
:100C500091FA5649888003F08DFA544988800846F5
:100C600080884FF6FF7101EA00205049888003F028
:100C700081FA4E49898808434C4988800846808813
:100C8000A0F5AE41613903D141F663104749888030
:100C90004648818846A0FFF7B9FA44488088A0F505
:100CA0001341413970D1CF2003F018FE002003F02A
:100CB0000FFEC12003F00CFE302003F009FEED20F2
:100CC00003F00CFE642003F003FE032003F000FE9B
:100CD000122003F0FDFD812003F0FAFDE82003F06F
:100CE000FDFD852003F0F4FD102003F0F1FD7A20D6
:100CF00003F0EEFDCB2003F0F1FD392003F0E8FD19
:100D00002C2003F0E5FD002003F0E2FD342003F089
:100D1000DFFD022003F0DCFDF72003F0DFFD2020E3
:100D200003F0D6FDEA2003F0D9FD002003F0D0FD4A
:100D3000002003F0CDFDC02003F0D0FD1B2003F008
:100D4000C7FDC12003F0CAFD012003F0C1FDC5208D
:100D500003F0C4FD302003F0BBFD302003F0B8FDEC
:100D6000C72003F0BBFDB72003F0B2FD362003F02F
:100D7000B5FD482003F0ACFD3A2003F0AFFD55204F
:100D800003F0A6FDB1201BE0C0E00000001002400F
:100D9000000C01400414014000F0FF00BB0B00BB3D
:100DA00004180140002001401C0100A0D8000020D0
:100DB000204C43442049443A25780D0A00000000A5
:100DC00003F08CFD002003F083FD1A2003F080FD6A
:100DD000B62003F083FD0A2003F07AFDA22003F081
:100DE00077FDF22003F07AFD002003F071FD26204C
:100DF00003F074FD012003F06BFDE02003F06EFDB5
:100E00000F2003F065FD2A2003F062FD282003F087
:100E10005FFD082003F05CFD0E2003F059FD082063
:100E200003F056FD542003F053FDA92003F050FDBC
:100E3000432003F04DFD0A2003F04AFD0F2003F08C
:100E400047FD002003F044FD002003F041FD002099
:100E500003F03EFD002003F03BFDE12003F03EFDEA
:100E6000002003F035FD152003F032FD172003F0BC
:100E70002FFD072003F02CFD112003F029FD062093
:100E800003F026FD2B2003F023FD562003F020FD68
:100E90003C2003F01DFD052003F01AFD102003F097
:100EA00017FD0F2003F014FD3F2003F011FD3F203C
:100EB00003F00EFD0F2003F00BFD2B2003F00EFDC1
:100EC000002003F005FD002003F002FD012003F0E7
:100ED000FFFC3F2003F0FCFC2A2003F0FFFC002075
:100EE00003F0F6FC002003F0F3FC002003F0F0FC1C
:100EF000EF2003F0EDFC112003F0F0FC782003F06C
:100F0000ABFE292003F0EAFC03F018B9FE48808804
:100F1000A0F5D04104397CD1112003F0DFFC14206E
:100F200003F09AFED02003F0D9FC072003F0D0FC98
:100F3000422003F0CDFC1D2003F0CAFCD12003F0B9
:100F4000CDFC002003F0C4FC1A2003F0C1FC0920F2
:100F500003F0BEFCD22003F0C1FC012003F0B8FC7A
:100F6000222003F0B5FCC02003F0B8FC102003F0F1
:100F7000AFFC3B2003F0ACFC002003F0A9FC0220F6
:100F800003F0A6FC112003F0A3FCC52003F0A6FC8F
:100F9000032003F09DFCC82003F0A0FC002003F018
:100FA00097FC252003F094FC212003F091FC052000
:100FB00003F08EFC002003F08BFC0A2003F088FC79
:100FC000652003F085FC252003F082FC772003F0E8
:100FD0007FFC502003F07CFC0F2003F079FC002004
:100FE00003F076FCF82003F079FC012003F070FC9C
:100FF000FE2003F073FC002003F06AFC022003F0E3
:1010000067FC202003F06AFC362003F067FC082010
:1010100000E02CE003F05CFC3A2003F05FFC55207C
:1010200003F056FC2B2003F059FC002003F050FC89
:10103000002003F04DFC012003F04AFC3F2003F0A8
:1010400047FC2A2003F04AFC002003F041FC00206A
:1010500003F03EFC012003F03BFCDF2003F038FCF2
:10106000782003F0F9FD292003F038FC4CE7A6486E
:101070008088A0F5A641103940F07C87ED2003F070
:101080002DFC012003F024FCFE2003F021FCEE20C7
:1010900003F024FCDE2003F01BFC212003F018FCED
:1010A000F12003F01BFC012003F012FCDF2003F011
:1010B00015FC102003F00CFCC42003F00FFC8F2063
:1010C00003F006FCC62003F009FC002003F000FC3E
:1010D000E22003F0FDFBE22003F0FAFBE22003F044
:1010E000F7FBBF2003F0FAFBAA2003F0F1FBB020CE
:1010F00003F0F4FB0D2003F0EBFB002003F0E8FB12
:101100000D2003F0E5FB002003F0E2FB112003F0CB
:10111000DFFB002003F0DCFB192003F0D9FB0020EB
:1011200003F0D6FB212003F0D3FB002003F0D0FB1B
:101130002D2003F0CDFB002003F0CAFB3D2003F07F
:10114000C7FB002003F0C4FB5D2003F0C1FB0020BF
:1011500003F0BEFB5D2003F0BBFB002003F0B8FBF7
:10116000B12003F0BBFB802003F0B2FB002003F0B2
:10117000AFFB8B2003F0ACFB002003F0A9FB962013
:1011800003F0A6FB002003F0A3FBB22003F0A6FBB4
:10119000002003F09DFB002003F09AFB022003F0E7
:1011A00097FB002003F094FB032003F091FB002049
:1011B00003F08EFBB32003F091FB002003F088FBCB
:1011C000002003F085FB002003F082FB002003F0E9
:1011D0007FFB002003F07CFB002003F079FB002064
:1011E00003F076FB002003F073FB002003F070FB9C
:1011F000002003F06DFB002003F06AFB002003F0E9
:1012000067FB002003F064FB002003F061FB00207B
:1012100003F05EFB002003F05BFB002003F058FBB3
:10122000002003F055FB002003F052FB002003F0E8
:101230004FFB002003F04CFB002003F049FB002093
:1012400003F046FB002003F043FBB42003F046FB11
:101250008B2003F03DFB002003F03AFB962003F0C7
:1012600037FB002003F034FBA12003F031FB00200A
:1012700003F02EFBB52003F031FB022003F028FB26
:10128000002003F025FB032003F022FB002003F0E5
:101290001FFB042003F01CFB002003F019FBB62009
:1012A00003F01CFB002003F013FB002003F010FBF5
:1012B000B72003F013FB002003F00AFB002003F02B
:1012C00007FB3F2003F004FB002003F001FB5E203E
:1012D00003F0FEFA002003F0FBFA642003F0F8FAB2
:1012E000002003F0F5FA8C2003F0F2FA002003F05E
:1012F000EFFAAC2003F0ECFA002003F0E9FADC206E
:1013000003F0E6FA002001E0D800002003F0E0FA44
:10131000702003F0DDFA002003F0DAFA902003F0E9
:10132000D7FA002003F0D4FAEB2003F0D1FA002022
:1013300003F0CEFADC2003F0CBFA002003F0C8FA69
:10134000B82003F0CBFA002003F0C2FA002003F02B
:10135000BFFA002003F0BCFA002003F0B9FA002025
:1013600003F0B6FA002003F0B3FA002003F0B0FA5D
:10137000002003F0ADFABA2003F0B0FA242003F005
:10138000A7FA002003F0A4FA002003F0A1FA00203D
:1013900003F09EFAC12003F0A1FA202003F098FA8E
:1013A000002003F095FA542003F092FA002003F095
:1013B0008FFAFF2003F08CFA002003F089FAC22094
:1013C00003F08CFA0A2003F083FA002003F080FA7D
:1013D000042003F07DFA002003F07AFAC32003F022
:1013E0007DFA3C2003F074FA002003F071FA3A20F1
:1013F00003F06EFA002003F06BFA392003F068FA6C
:10140000002003F065FA372003F062FA002003F0B1
:101410005FFA3C2003F05CFA002003F059FA362012
:1014200003F056FA002003F053FA322003F050FA8A
:10143000002003F04DFA2F2003F04AFA002003F0B9
:1014400047FA2C2003F044FA002003F041FA292047
:1014500003F03EFA002003F03BFA262003F038FAAE
:10146000002003F035FA242003F032FA002003F0C4
:101470002FFA242003F02CFA002003F029FA23206D
:1014800003F026FA002003F023FA3C2003F020FAB0
:10149000002003F01DFA362003F01AFA002003F0B2
:1014A00017FA322003F014FA002003F011FA2F206B
:1014B00003F00EFA002003F00BFA2C2003F008FAD8
:1014C000002003F005FA292003F002FA002003F0BF
:1014D000FFF9262003F0FCF9002003F0F9F924209D
:1014E00003F0F6F9002003F0F3F9242003F0F0F9FB
:1014F000002003F0EDF9232003F0EAF9002003F0C7
:10150000E7F9C42003F0EAF9622003F0E1F90020D2
:1015100003F0DEF9052003F0DBF9002003F0D8F931
:10152000842003F0D5F9002003F0D2F9F02003F075
:10153000CFF9002003F0CCF9182003F0C9F90020FE
:1015400003F0C6F9A42003F0C3F9002003F0C0F9AA
:10155000182003F0BDF9002003F0BAF9502003F081
:10156000B7F9002003F0B4F90C2003F0B1F9002022
:1015700003F0AEF9172003F0ABF9002003F0A8F94F
:10158000952003F0A5F9002003F0A2F9F32003F061
:101590009FF9002003F09CF9E62003F099F9002060
:1015A00003F096F9C52003F099F9322003F090F981
:1015B000002003F08DF9442003F08AF9002003F0A5
:1015C00087F9652003F084F9002003F081F9762083
:1015D00003F07EF9002003F07BF9882003F078F90E
:1015E000002003F075F9C62003F078F9202003F0FD
:1015F0006FF9002003F06CF9172003F069F900205F
:1016000003F066F9012003F063F9002003F060F9AC
:10161000C72003F063F9002003F05AF9002003F01B
:1016200057F9002003F054F9002003F051F9C820C5
:1016300003F054F9002003F04BF9002003F048F9BF
:10164000002003F045F9002003F042F9C92003F01F
:1016500045F9002003F03CF9002003F039F900209F
:1016600003F036F9002003F033F9002003F030F9DD
:10167000002003F02DF9002003F02AF9002003F0E8
:1016800027F9002003F024F9002003F021F90020BD
:1016900003F01EF9002003F01BF9002003F018F9F5
:1016A000002003F015F9002003F012F9002003F0E8
:1016B0000FF9E02003F012F9162003F009F90020D9
:1016C00003F006F91C2003F003F9002003F000F9F1
:1016D000212003F0FDF8002003F0FAF8362003F093
:1016E000F7F8002003F0F4F8462003F0F1F80020AA
:1016F00003F0EEF8522003F0EBF8002003F0E8F8D6
:10170000642003F0E5F8002003F0E2F87A2003F00B
:10171000DFF8002003F0DCF88B2003F0D9F800207C
:1017200003F0D6F8992003F0D3F8002003F0D0F8A6
:10173000A82003F0CDF8002003F0CAF8B92003F088
:10174000C7F8002003F0C4F8C42003F0C1F800205B
:1017500003F0BEF8CA2003F0BBF8002003F0B8F88D
:10176000D22003F0B5F8002003F0B2F8D92003F03E
:10177000AFF8002003F0ACF8E02003F0A9F8002057
:1017800003F0A6F8F32003F0A3F8002003F0A0F87C
:10179000E12003F0A3F8162003F09AF8002003F0EC
:1017A00097F81C2003F094F8002003F091F8222011
:1017B00003F08EF8002003F08BF8362003F088F851
:1017C000002003F085F8452003F082F8002003F0A4
:1017D0007FF8522003F07CF8002003F079F86420B1
:1017E00003F076F8002003F073F87A2003F070F825
:1017F000002003F06DF88B2003F06AF8002003F05E
:1018000067F8992003F064F8002003F061F8A8203D
:1018100003F05EF8002003F05BF8B92003F058F8FD
:10182000002003F055F8C42003F052F8002003F024
:101830004FF8CA2003F04CF8002003F049F8D220FA
:1018400003F046F8002003F043F8D82003F040F8F6
:10185000002003F03DF8E02003F03AF8002003F008
:1018600037F8F32003F034F8002003F031F8E220D9
:1018700003F034F8052003F02BF8002003F028F8DB
:101880000B2003F025F8002003F022F81B2003F0C2
:101890001FF8002003F01CF8342003F019F8002092
:1018A00003F016F8442003F013F8002003F010F8BA
:1018B0004F2003F00DF8002003F00AF8612003F038
:1018C00007F8002003F004F8792003F001F8002065
:1018D00002F0FEFF882002F0FBFF002002F0F8FF7C
:1018E000972002F0F5FF002002F0F2FFA62002F0A0
:1018F000EFFF002002F0ECFFB72002F0E9FF00202C
:1019000002F0E6FFC22002F0E3FF002002F0E0FF59
:10191000C72002F0DDFF002002F0DAFFD12002F044
:10192000D7FF002002F0D4FFD62002F0D1FF002024
:1019300002F0CEFFDD2002F0CBFF002002F0C8FF56
:10194000F32002F0C5FF002002F0C2FFE32002F006
:10195000C5FF052002F0BCFF002002F0B9FF0A20FD
:1019600002F0B6FF002002F0B3FF1C2002F0B0FF2F
:10197000002002F0ADFF332002F0AAFF002002F0A9
:10198000A7FF442002F0A4FF002002F0A1FF502096
:1019900002F09EFF002002F09BFF622002F098FF01
:1019A000002002F095FF782002F092FF002002F064
:1019B0008FFF882002F08CFF002002F089FF972023
:1019C00002F086FF002002F083FFA62002F080FFD5
:1019D000002002F07DFFB72002F07AFF002002F025
:1019E00077FFC22002F074FF002002F071FFC720D1
:1019F00002F06EFF002002F06BFFD12002F068FFC2
:101A0000002002F065FFD52002F062FF002002F006
:101A10005FFFDD2002F05CFF002002F059FFF320A1
:101A200002F056FF002002F053FFE42002F056FFC0
:101A3000012002F04DFF002002F04AFF012002F0D9
:101A400047FF002002F044FF022002F041FF002087
:101A500002F03EFF2A2002F03BFF002002F038FF98
:101A60003C2002F035FF002002F032FF4B2002F054
:101A70002FFF002002F02CFF5D2002F029FF002044
:101A800002F026FF742002F023FF002002F020FF66
:101A9000842002F01DFF002002F01AFF932002F0C4
:101AA00017FF002002F014FFA22002F011FF002017
:101AB00002F00EFFB32002F00BFF002002F008FF3F
:101AC000BE2002F005FF002002F002FFC42002F059
:101AD000FFFE002002F0FCFECD2002F0F9FE002007
:101AE00002F0F6FED32002F0F3FE002002F0F0FE3A
:101AF000DD2002F0EDFE002002F0EAFEF32002F00D
:101B0000E7FE002002F0E4FEE52002F0E7FE002000
:101B100002F0DEFE002002F0DBFE002002F0D8FE24
:101B2000002002F0D5FE022002F0D2FE002002F0DA
:101B3000CFFE292002F0CCFE002002F0C9FE3C209E
:101B400002F0C6FE002002F0C3FE4B2002F0C0FEF1
:101B5000002002F0BDFE5D2002F0BAFE002002F07F
:101B6000B7FE742002F0B4FE002002F0B1FE842023
:101B700002F0AEFE002002F0ABFE932002F0A8FEC1
:101B8000002002F0A5FEA22002F0A2FE002002F03A
:101B90009FFEB32002F09CFE002002F099FEBE20C2
:101BA00002F096FE002002F093FEC42002F090FEA8
:101BB000002002F08DFECD2002F08AFE002002F00F
:101BC00087FED32002F084FE002002F081FEDC209C
:101BD00002F07EFE002002F07BFEF32002F078FE91
:101BE000002002F075FEE62002F078FE112002F0DF
:101BF0006FFE002002F06CFE342002F069FE00202F
:101C000002F066FE562002F063FE002002F060FE45
:101C1000762002F05DFE002002F05AFE772002F0EE
:101C200057FE002002F054FE662002F051FE002014
:101C300002F04EFE882002F04BFE002002F048FE2B
:101C4000992002F045FE002002F042FEBB2002F087
:101C50003FFE002002F03CFE992002F039FE0020F9
:101C600002F036FE662002F033FE002002F030FE65
:101C7000552002F02DFE002002F02AFE552002F031
:101C800027FE002002F024FE452002F021FE002065
:101C900002F01EFE432002F01BFE002002F018FEA0
:101CA000442002F015FE002002F012FEE72002F0B0
:101CB00015FE322002F00CFE002002F009FE552035
:101CC00002F006FE002002F003FE762002F000FE85
:101CD000002002F0FDFD662002F0FAFD002002F077
:101CE000F7FD672002F0F4FD002002F0F1FD67200F
:101CF00002F0EEFD002002F0EBFD872002F0E8FD8F
:101D0000002002F0E5FD992002F0E2FD002002F043
:101D1000DFFDBB2002F0DCFD002002F0D9FD9920A0
:101D200002F0D6FD002002F0D3FD772002F0D0FDB6
:101D3000002002F0CDFD442002F0CAFD002002F098
:101D4000C7FD562002F0C4FD002002F0C1FD232093
:101D500002F0BEFD002002F0BBFD332002F0B8FD12
:101D6000002002F0B5FD452002F0B2FD002002F097
:101D7000AFFDE82002F0B2FD002002F0A9FD002036
:101D800002F0A6FD992002F0A3FD002002F0A0FDC4
:101D9000872002F09DFD002002F09AFD882002F0CD
:101DA00097FD002002F094FD772002F091FD0020C5
:101DB00002F08EFD662002F08BFD002002F088FD0F
:101DC000882002F085FD002002F082FDAA2002F0AA
:101DD0007FFD002002F07CFDBB2002F079FD002099
:101DE00002F076FD992002F073FD002002F070FDF4
:101DF000662002F06DFD002002F06AFD552002F021
:101E000067FD002002F064FD552002F061FD002016
:101E100002F05EFD442002F05BFD002002F058FD60
:101E2000442002F055FD002002F052FD552002F042
:101E30004FFD002002F04CFDE92002F04FFDAA20EA
:101E400002F046FD002002F043FD002002F040FDBC
:101E5000002002F03DFD002002F040FDAA2002F02B
:101E600037FDCF2002F03AFD002002F031FD0020C6
:101E700002F02EFD002002F02BFD002002F028FDD4
:101E8000002002F025FD002002F022FD002002F0DB
:101E90001FFD002002F01CFD002002F019FD0020B3
:101EA00002F016FD002002F013FD002002F010FDEC
:101EB000002002F00DFD002002F00AFD002002F0DB
:101EC00007FD002002F004FD002002F001FDF020DB
:101ED00002F004FD002002F0FBFC502002F0F8FCB0
:101EE000002002F0F5FC002002F0F2FC002002F0DD
:101EF000EFFCF32002F0F2FC002002F0E9FCF920F4
:101F000002F0ECFC062002F0E3FC102002F0E0FC02
:101F1000292002F0DDFC002002F0DAFC3A2002F079
:101F2000DDFC552002F0D4FC112002F0D7FC642027
:101F300002F092FE292002F0D1FC352002F0CEFC06
:101F4000002002F0C5FC512002F0C8FCFF2002F086
:101F5000BFFC532002F0C2FC2C2002F0B9FC55203B
:101F600002F0BCFC822002F0B3FC2C2002F0B6FC94
:101F700002F0E4B8FE488088A0F5AA4110397DD16E
:101F800055214FF4704002F0B9FCAA214FF2010034
:101F900002F0B4FC52214FF2020002F0AFFC082123
:101FA0004FF2030002F0AAFC01214FF2040002F0FC
:101FB000A5FC0D214FF4304002F0A0FC0D214BF2A6
:101FC000010002F09BFC0D214BF2020002F096FC96
:101FD00034214FF4364002F091FC34214BF2016081
:101FE00002F08CFC34214BF2026002F087FC0D21E0
:101FF0004FF4314002F082FC0D214BF2011002F04F
:102000007DFC0D214BF2021002F078FC34214FF4DC
:10201000374002F073FC34214BF2017002F06EFC89
:1020200034214BF2027002F069FC00214FF432407F
:1020300002F064FC00214BF2012002F05FFC002161
:102040004BF2022002F05AFC24214FF4384002F0F7
:1020500055FC24214BF6010002F050FC24214BF6E4
:10206000020002F04BFC01214FF43F4002F046FC1D
:102070000F214FF4334002F041FC00E0FDE30F215B
:102080004BF2013002F03AFC0F214BF2023002F029
:1020900035FC34214FF4394002F030FC34214BF64A
:1020A000011002F02BFC34214BF6021002F026FC4A
:1020B00008214FF4354002F021FC08214BF2015079
:1020C00002F01CFC08214BF2025002F017FC032125
:1020D0004FF4424002F012FC24214FF43A4002F047
:1020E0000DFC24214BF6012002F008FC24214BF6C4
:1020F000022002F003FC00214FF43C4002F0FEFB02
:1021000078214BF6014002F0F9FB00214BF602402A
:1021100002F0F4FB00214FF43D4002F0EFFB782188
:102120004BF6015002F0EAFB00214BF6025002F0A0
:10213000E5FB00214FF43E4002F0E0FB64214BF64A
:10214000016002F0DBFB00214FF4514002F0D6FBAE
:1021500033214DF2011002F0D1FB00214DF20210AB
:1021600002F0CCFB34214DF2031002F0C7FB00213A
:102170004DF2041002F0C2FB3A214DF2051002F0BC
:10218000BDFB00214DF2061002F0B8FB4A214DF2D2
:10219000071002F0B3FB00214DF2081002F0AEFB75
:1021A0005C214DF2091002F0A9FB00214DF20A104A
:1021B00002F0A4FB81214DF20B1002F09FFB0021E5
:1021C0004DF20C1002F09AFBA6214DF20D1002F018
:1021D00095FB00214DF20E1002F090FBE5214DF22F
:1021E0000F1002F08BFB01214DF2101002F086FB64
:1021F00013214DF2111002F081FB01214DF212105A
:1022000002F07CFB54214DF2131002F077FB012108
:102210004DF2141002F072FB82214DF2151002F003
:102220006DFB01214DF2161002F068FBCA214DF240
:10223000171002F063FB02214DF2181002F05EFB52
:1022400000214DF2191002F059FB02214DF21A1033
:1022500002F054FB01214DF21B1002F04FFB022152
:102260004DF21C1002F04AFB34214DF21D1002F019
:1022700045FB02214DF21E1002F040FB67214DF29A
:102280001F1002F03BFB02214DF2201002F036FB42
:1022900084214DF2211002F031FB02214DF2221077
:1022A00002F02CFBA4214DF2231002F027FB0221A7
:1022B0004DF2241002F022FBB7214DF2251002F05E
:1022C0001DFB02214DF2261002F018FBCF214DF22A
:1022D000271002F013FB02214DF2281002F00EFB32
:1022E000DE214DF2291002F009FB02214DF22A10E5
:1022F00002F004FBF2214DF22B1002F0FFFA022152
:102300004DF22C1002F0FAFAFE214DF22D1002F0DF
:10231000F5FA03214DF22E1002F0F0FA10214DF2E1
:102320002F1002F0EBFA03214DF2301002F0E6FA22
:1023300033214DF2311002F0E1FA03214DF2321057
:1023400002F0DCFA6D214DF2331002F0D7FA0021D1
:102350004FF4524002F0D2FA33214DF2012002F044
:10236000CDFA00214DF2022002F0C8FA342101E03A
:10237000D80000204DF2032002F0C0FA00214DF2F7
:10238000042002F0BBFA3A214DF2052002F0B6FA21
:1023900000214DF2062002F0B1FA4A214DF2072049
:1023A00002F0ACFA00214DF2082002F0A7FA5C21FD
:1023B0004DF2092002F0A2FA00214DF20A2002F0AB
:1023C0009DFA81214DF20B2002F098FA00214DF286
:1023D0000C2002F093FAA6214DF20D2002F08EFAA5
:1023E00000214DF20E2002F089FAE5214DF20F2076
:1023F00002F084FA01214DF2102002F07FFA13213D
:102400004DF2112002F07AFA01214DF2122002F071
:1024100075FA54214DF2132002F070FA01214DF2A9
:10242000142002F06BFA82214DF2152002F066FAB8
:1024300001214DF2162002F061FACA214DF2172057
:1024400002F05CFA02214DF2182002F057FA002146
:102450004DF2192002F052FA02214DF21A2002F038
:102460004DFA01214DF21B2002F048FA02214DF2F3
:102470001C2002F043FA34214DF21D2002F03EFAF6
:1024800002214DF21E2002F039FA67214DF21F2081
:1024900002F034FA02214DF2202002F02FFA8421BA
:1024A0004DF2212002F02AFA02214DF2222002F000
:1024B00025FAA4214DF2232002F020FA02214DF248
:1024C000242002F01BFAB7214DF2252002F016FA63
:1024D00002214DF2262002F011FACF214DF22720E1
:1024E00002F00CFA02214DF2282002F007FADE2158
:1024F0004DF2292002F002FA02214DF22A2002F0C8
:10250000FDF9F2214DF22B2002F0F8F902214DF2F3
:102510002C2002F0F3F9FE214DF22D2002F0EEF90D
:1025200003214DF22E2002F0E9F910214DF22F2067
:1025300002F0E4F903214DF2302002F0DFF93321FB
:102540004DF2312002F0DAF903214DF2322002F08F
:10255000D5F96D214DF2332002F0D0F900214FF46E
:10256000534002F0CBF933214DF2013002F0C6F9AD
:1025700000214DF2023002F0C1F934214DF2033056
:1025800002F0BCF900214DF2043002F0B7F93A2113
:102590004DF2053002F0B2F900214DF2063002F0A2
:1025A000ADF94A214DF2073002F0A8F900214DF2B1
:1025B000083002F0A3F95C214DF2093002F09EF9D7
:1025C00000214DF20A3002F099F981214DF20B30D1
:1025D00002F094F900214DF20C3002F08FF9A6219F
:1025E0004DF20D3002F08AF900214DF20E3002F06A
:1025F00085F9E5214DF20F3002F080F901214DF20D
:10260000103002F07BF913214DF2113002F076F90F
:1026100001214DF2123002F071F954214DF21330C4
:1026200002F06CF901214DF2143002F067F98221B9
:102630004DF2153002F062F901214DF2163002F030
:102640005DF9CA214DF2173002F058F902214DF21E
:10265000183002F053F900214DF2193002F04EF912
:1026600002214DF21A3002F049F901214DF21B30DE
:1026700002F044F902214DF21C3002F03FF93421FE
:102680004DF21D3002F03AF902214DF21E3002F0F7
:1026900035F967214DF21F3002F030F902214DF279
:1026A000203002F02BF984214DF2213002F026F97E
:1026B00002214DF2223002F021F9A4214DF2233003
:1026C00002F01CF902214DF2243002F017F9B72173
:1026D0004DF2253002F012F902214DF2263002F0BF
:1026E0000DF9CF214DF2273002F008F902214DF209
:1026F000283002F003F9DE214DF2293002F0FEF815
:1027000002214DF22A3002F0F9F8F2214DF22B307D
:1027100002F0F4F802214DF22C3002F0EFF8FE2125
:102720004DF22D3002F0EAF803214DF22E3002F086
:10273000E5F810214DF22F3002F0E0F803214DF2C0
:10274000303002F0DBF833214DF2313002F0D6F8B0
:1027500003214DF2323002F0D1F86D214DF23330C9
:1027600002F0CCF800214FF4544002F0C7F83321B6
:102770004DF2014002F0C2F800214DF2024002F099
:10278000BDF834214DF2034002F0B8F800214DF2BB
:10279000044002F0B3F83A214DF2054002F0AEF8E1
:1027A00000214DF2064002F0A9F84A214DF20740FF
:1027B00002F0A4F800214DF2084002F09FF85C21DD
:1027C0004DF2094002F09AF800214DF20A4002F061
:1027D00095F881214DF20B4002F090F800214DF266
:1027E0000C4002F08BF8A6214DF20D4002F086F865
:1027F00000214DF20E4002F081F8E5214DF20F402C
:1028000002F07CF801214DF2104002F077F813211C
:102810004DF2114002F072F801214DF2124002F027
:102820006DF854214DF2134002F068F801214DF289
:10283000144002F063F882214DF2154002F05EF878
:1028400001214DF2164002F059F8CA214DF217400D
:1028500002F054F802214DF2184002F04FF8002126
:102860004DF2194002F04AF802214DF21A4002F0EE
:1028700045F801214DF21B4000E006E302F03EF86E
:1028800002214DF21C4002F039F834214DF21D4076
:1028900002F034F802214DF21E4002F02FF86721B9
:1028A0004DF21F4002F02AF802214DF2204002F0C2
:1028B00025F884214DF2214002F020F802214DF24A
:1028C000224002F01BF8A4214DF2234002F016F83A
:1028D00002214DF2244002F011F8B7214DF22540BB
:1028E00002F00CF802214DF2264002F007F8CF2149
:1028F0004DF2274002F002F802214DF2284001F08B
:10290000FDFFDE214DF2294001F0F8FF02214DF2DA
:102910002A4001F0F3FFF2214DF22B4001F0EEFFCF
:1029200002214DF22C4001F0E9FFFE214DF22D4035
:1029300001F0E4FF03214DF22E4001F0DFFF1021F2
:102940004DF22F4001F0DAFF03214DF2304001F04B
:10295000D5FF33214DF2314001F0D0FF03214DF27C
:10296000324001F0CBFF6D214DF2334001F0C6FF44
:1029700000214FF4554001F0C1FF33214DF20150C9
:1029800001F0BCFF00214DF2025001F0B7FF3421ED
:102990004DF2035001F0B2FF00214DF2045001F05E
:1029A000ADFF3A214DF2055001F0A8FF00214DF294
:1029B000065001F0A3FF4A214DF2075001F09EFF9F
:1029C00000214DF2085001F099FF5C214DF20950B1
:1029D00001F094FF00214DF20A5001F08FFF812198
:1029E0004DF20B5001F08AFF00214DF20C5001F026
:1029F00085FFA6214DF20D5001F080FF00214DF220
:102A00000E5001F07BFFE5214DF20F5001F076FFF3
:102A100001214DF2105001F071FF13214DF21150C0
:102A200001F06CFF01214DF2125001F067FF5421BB
:102A30004DF2135001F062FF01214DF2145001F0EC
:102A40005DFF82214DF2155001F058FF01214DF23A
:102A5000165001F053FFCA214DF2175001F04EFFFE
:102A600002214DF2185001F049FF00214DF219509A
:102A700001F044FF02214DF21A5001F03FFF012105
:102A80004DF21B5001F03AFF02214DF21C5001F0B3
:102A900035FF34214DF21D5001F030FF02214DF27F
:102AA0001E5001F02BFF67214DF21F5001F026FF51
:102AB00002214DF2205001F021FF84214DF22150DE
:102AC00001F01CFF02214DF2225001F017FFA4215A
:102AD0004DF2235001F012FF02214DF2245001F07B
:102AE0000DFFB7214DF2255001F008FF02214DF2F4
:102AF000265001F003FFCF214DF2275001F0FEFEDA
:102B000002214DF2285001F0F9FEDE214DF229504C
:102B100001F0F4FE02214DF22A5001F0EFFEF22105
:102B20004DF22B5001F0EAFE02214DF22C5001F043
:102B3000E5FEFE214DF22D5001F0E0FE03214DF2A5
:102B40002E5001F0DBFE10214DF22F5001F0D6FE89
:102B500003214DF2305001F0D1FE33214DF23150BE
:102B600001F0CCFE03214DF2325001F0C7FE6D2181
:102B70004DF2335001F0C2FE00214FF4564001F0F7
:102B8000BDFE33214DF2016001F0B8FE00214DF28F
:102B9000026001F0B3FE34214DF2036001F0AEFE9D
:102BA00000214DF2046001F0A9FE3A214DF20560CA
:102BB00001F0A4FE00214DF2066001F09FFE4A21C3
:102BC0004DF2076001F09AFE00214DF2086001F01D
:102BD00095FE5C214DF2096001F090FE00214DF25E
:102BE0000A6001F08BFE81214DF20B6001F086FE40
:102BF00000214DF20C6001F081FEA6214DF20D6026
:102C000001F07CFE00214DF20E6001F077FEE5211F
:102C10004DF20F6001F072FE01214DF2106001F0E3
:102C20006DFE13214DF2116001F068FE01214DF29D
:102C3000126001F063FE54214DF2136001F05EFE5C
:102C400001214DF2146001F059FE82214DF2156010
:102C500001F054FE01214DF2166001F04FFECA2131
:102C60004DF2176001F04AFE02214DF2186001F0AA
:102C700045FE00214DF2196001F040FE02214DF2A7
:102C80001A6001F03BFE01214DF21B6001F036FE9F
:102C900002214DF21C6001F031FE34214DF21D6025
:102CA00001F02CFE02214DF21E6001F027FE67218B
:102CB0004DF21F6001F022FE02214DF2206001F072
:102CC0001DFE84214DF2216001F018FE02214DF21B
:102CD000226001F013FEA4214DF2236001F00EFEEC
:102CE00002214DF2246001F009FEB7214DF225606A
:102CF00001F004FE02214DF2266001F0FFFDCF211C
:102D00004DF2276001F0FAFD02214DF2286001F03A
:102D1000F5FDDE214DF2296001F0F0FD02214DF2BA
:102D20002A6001F0EBFDF2214DF22B6001F0E6FD8F
:102D300002214DF22C6001F0E1FDFE214DF22D60EB
:102D400001F0DCFD03214DF22E6001F0D7FD1021D2
:102D50004DF22F6001F0D2FD03214DF2306001F001
:102D6000CDFD33214DF2316001F0C8FD03214DF25C
:102D7000326001F0C3FD6D214DF2336001F0BEFD04
:102D800055214FF4704001F0B9FDAA214FF2010026
:102D900001F0B4FD52214FF2020001F0AFFD082115
:102DA0004FF2030001F0AAFD00214FF2040001F0F0
:102DB000A5FDCC214FF4314001F0A0FD00214BF2E4
:102DC000011001F09BFD05214FF4364001F096FD06
:102DD00070214FF4374001F091FD70214BF20170EA
:102DE00001F08CFD01214FF4384001F087FD0321F3
:102DF0004BF6010001F082FD03214BF6020001F0C9
:102E00007DFD03214BF6030001F078FD02214FF414
:102E10003C4001F073FD00214BF6014001F06EFDD6
:102E200000214BF6024001F069FDD0214FF44940EA
:102E300001F064FD02214CF6011001F05FFD50210C
:102E40004CF6021001F05AFD50214CF6031001F02F
:102E500055FD50214CF6041001F050FD00214FF4B7
:102E6000545001F04BFD55214FF4685001F046FDE0
:102E70004FF4885001F032FD782001F00BFF4FF441
:102E8000245001F02BFD01F059B9FE488088A0F5CF
:102E9000134125397ED147F6F001E52001F02EFDE2
:102EA0004FF48071012001F029FD4FF4E061022010
:102EB00001F024FD41F23001032001F01FFD00214B
:102EC000042001F01BFD40F20221082001F016FD54
:102ED0000021092001F012FD00210A2001F00EFD61
:102EE00000210C2001F00AFD00210D2001F006FD5B
:102EF00000210F2001F002FD0021102001F0FEFC56
:102F00000721112001F0FAFC0021122001F0F6FC4B
:102F10000021132001F0F2FC0021072001F0EEFC5B
:102F200041F29061102001F0E9FC40F227211120CC
:102F300001F0E4FC9D21122001F0E0FC4FF4C851A7
:102F4000132001F0DBFC2521292001F0D7FC0D2105
:102F50002B2001F0D3FC0721302001F0CFFC40F200
:102F60000331312001F0CAFC0321322001F0C6FCFC
:102F700040F20621352001F0C1FC0821362001F085
:102F8000BDFC40F20641372001F0B8FC4FF441711E
:102F9000382000E057E001F0B1FC0721392001F0B2
:102FA000ADFC40F202613C2001F0A8FC08213D206C
:102FB00001F0A4FC0021502001F0A0FCEF215120E1
:102FC00001F09CFC0021522001F098FC40F23F11DE
:102FD000532001F093FC4FF42741602001F08EFC58
:102FE0000121612001F08AFC00216A2001F086FCA9
:102FF0000021802001F082FC0021812001F07EFC74
:103000000021822001F07AFC0021832001F076FC6F
:103010000021842001F072FC0021852001F06EFC6B
:103020001021902001F06AFC4FF4C061922001F061
:1030300065FC40F23311072001F060FC22210020E2
:1030400001F05CFC1FE78F488088A0F51341283908
:103050007ED141F28F01EC2001F050FC41F234218D
:10306000EF2001F04BFC4FF48071012001F046FC91
:103070004FF4E061022001F041FC41F230010320F5
:1030800001F03CFC0021042001F038FC40F2022158
:10309000082001F033FC0021092001F02FFC002161
:1030A0000A2001F02BFC01210C2001F027FC00215B
:1030B0000D2001F023FC00210F2001F01FFC002156
:1030C000102001F01BFC0721112001F017FC00214A
:1030D000122001F013FC0021132001F00FFC01214C
:1030E000072001F00BFC322001F0B6FD41F29041C7
:1030F000102001F003FC40F22721112001F0FEFB1B
:10310000322001F0A9FD8A21122001F0F7FB3220C4
:1031100001F0A2FD4FF4D051132001F0EFFB062186
:10312000292001F0EBFB0D212B2001F0E7FB3220E1
:1031300001F092FD0021202001F0E0FB0021212080
:1031400001F0DCFB322001F087FD0021302000E09F
:1031500074E001F0D3FB40F20461312001F0CEFBBA
:1031600040F20531322001F0C9FB0021352001F089
:10317000C5FB40F60941362001F0C0FB4FF4017158
:10318000372001F0BBFB40F20131382001F0B6FBE3
:1031900040F20771392001F0B1FB00213C2001F021
:1031A000ADFB40F60A213D2001F0A8FB322001F0E2
:1031B00053FD0021502001F0A1FBEF21512001F02F
:1031C0009DFB0021522001F099FB40F23F1153205A
:1031D00001F094FB4FF42741602001F08FFB0121A7
:1031E000612001F08BFB00216A2001F087FB0021A8
:1031F000802001F083FB0021812001F07FFB002172
:10320000822001F07BFB0021832001F077FB00216D
:10321000842001F073FB0021852001F06FFB102159
:10322000902001F06BFB4FF4C061922001F066FB2F
:1032300040F23311072001F061FB24E61148808839
:10324000A0F5134120397DD1084601F057FB4FF41A
:103250008071012001F052FB4FF4E061022001F087
:103260004DFB41F23001032001F048FB0021042016
:1032700001F044FB40F20221082001F03FFB002155
:10328000092001E0D800002001F038FB00210A20CD
:1032900001F034FB01210C2001F030FB00210D2056
:1032A00001F02CFB00210F2001F028FB322001F05F
:1032B000D3FC40F20111072001F020FB322001F085
:1032C000CBFC4FF48651102001F018FB0721112090
:1032D00001F014FB4FF48871122001F00FFB4FF442
:1032E0003061132001F00AFB0021292001F006FBC8
:1032F00044F210012B2001F001FB0021502001F0CD
:10330000FDFAEF21512001F0F9FA0021522001F0DD
:10331000F5FA40F23F11532001F0F0FA4FF41C513E
:10332000602001F0EBFA0121612001F0E7FA0021B1
:103330006A2001F0E3FA0021802001F0DFFA002189
:10334000812000E030E001F0D9FA0021822001F074
:10335000D5FA0021832001F0D1FA0021842001F068
:10336000CDFA0021852001F0C9FA1021902001F04A
:10337000C5FA0021922001F0C1FA0121932001F049
:10338000BDFA4FF48871952001F0B8FA002197201A
:1033900001F0B4FA0021982001F0B0FA40F2731164
:1033A000072001F0ABFA6EE5FE488088A0F51341D6
:1033B00031397DD141F21401E72001F09FFA4FF439
:1033C0008071012001F09AFA4FF40071022001F09F
:1033D00095FA41F23801032001F090FA40F20221FF
:1033E000082001F08BFA0021092001F087FA002162
:1033F0000A2001F083FA00210C2001F07FFA00215D
:103400000D2001F07BFA00210F2001F077FA002156
:10341000102001F073FA0721112001F06FFA00214A
:10342000122001F06BFA0021132001F067FAC82086
:1034300001F012FC41F29061102001F05FFA40F2BD
:103440002721112001F05AFA322001F005FC0C214D
:10345000122001F053FA322001F0FEFB4FF400611C
:10346000132001F04BFA1121292001F047FA0B211A
:103470002B2001F043FA322001F0EEFB0021202046
:1034800001F03CFA40F23F11212001F037FA00210F
:10349000302001F033FA4FF48371312001F02EFA1D
:1034A0000021322001F02AFA4FF40171352000E0AA
:1034B00064E001F023FA41F20A61362001F01EFABD
:1034C00040F20771372001F019FA4FF48371382068
:1034D00001F014FA40F20771392001F00FFA40F2BE
:1034E00002413C2001F00AFA40F60F413D2001F074
:1034F00005FA0021502001F001FAEF21512001F0DE
:10350000FDF90021522001F0F9F940F23F1153205A
:1035100001F0F4F94FF41C51602001F0EFF90121A2
:10352000612001F0EBF900216A2001F0E7F90021A8
:10353000802001F0E3F90021812001F0DFF9002172
:10354000822001F0DBF90021832001F0D7F900216E
:10355000842001F0D3F90021852001F0CFF910215A
:10356000902001F0CBF94FF4C061922001F0C6F930
:1035700040F23311072001F0C1F984E489488088C2
:10358000A0F5A84108397DD14FF48071012001F0E8
:10359000B5F94FF4E061022001F0B0F941F23001D9
:1035A000032001F0ABF90021042001F0A7F940F25B
:1035B0000721082001F0A2F90021092001F09EF95D
:1035C00000210A2001F09AF900210C2001F096F95F
:1035D00000210D2001F092F900210F2001F08EF959
:1035E000142001F039FB41F2B061102001F086F99E
:1035F0000121112001F082F90121172001F07EF94B
:103600004FF49C71122001F079F94FF400611320FE
:1036100001F074F90921292001F070F909212A200B
:1036200001F06CF90021A42001F068F9002150207C
:1036300001F064F9EF21512001F060F900215220DE
:1036400001F05CF940F23F11532001F057F94FF4BB
:103650001C51602001F052F90121612001F04EF966
:1036600000216A2001F04AF90021802001F046F98A
:103670000021812001F042F90021822001F03EF971
:10368000002100E024E0832001F038F900218420AB
:1036900001F034F90021852001F030F91321902048
:1036A00001F02CF90021922001F028F90321932048
:1036B00001F024F94FF48871952001F01FF940F2D0
:1036C0007311072001F01AF9322001F0C5FAB9E4AC
:1036D00034488088A0F5A851053965D1072001F04C
:1036E0000DF9322001F0B8FA4FF48E71122001F07A
:1036F00005F90121A42001F001F90F21082001F0B2
:10370000FDF808210A2001F0F9F808210D2001F048
:10371000F5F840F20771302001F0F0F80721312070
:1037200001F0ECF840F20361322001F0E7F84FF4C9
:10373000E061332001F0E2F840F20221342001F090
:10374000DDF80221352001F0D9F841F60F7136205D
:1037500001F0D4F840F20771372001F0CFF80021D2
:10376000382001F0CBF80021392001F0C7F840F2F1
:1037700007713A2001F0C2F800213B2001F0BEF8A9
:1037800007213C2001F0BAF800213D2001F0B6F8F5
:10379000322001F061FA0121072001F0AFF8012188
:1037A000172002E0D8000020AEE001F0A7F8322098
:1037B00001F052FA4FF4BD51102001F09FF840F291
:1037C0001721112001F09AF84FF48F71122001F0A7
:1037D00095F84FF47061132001F090F800212A2031
:1037E00001F08CF80A21292001F088F84FF49F712C
:1037F000122001F083F80021502001F07FF8EF2122
:10380000512001F07BF80021522001F077F840F2BE
:103810003F11532001F072F84FF41C51602001F069
:103820006DF80121612001F069F800216A2001F0A2
:1038300065F80021802001F061F80021812001F06D
:103840005DF80021822001F059F80021832001F069
:1038500055F80021842001F051F80021852001F065
:103860004DF81321902001F049F84FF44071922057
:1038700001F044F80521932001F040F80021952043
:1038800001F03CF80021972001F038F80021982041
:1038900001F034F84FF48071012001F02FF84FF45B
:1038A000E061022001F02AF841F23801032001F022
:1038B00025F80021042001F021F800210C2001F05E
:1038C0001DF800210F2001F019F80021202001F03F
:1038D00015F80021212001F011F82121072001F025
:1038E0000DF8142001F0B8F96121072001F006F865
:1038F000142001F0B1F940F27311072000F0FEFF2F
:10390000142001F0A9F998E4FE488088A0F535411B
:1039100005397DD1084600F0F1FF0021084600F08E
:10392000EDFF0021084600F0E9FF0021084600F005
:10393000E5FF0121A42000F0E1FF142001F08CF943
:103940004FF41C51602000F0D9FF40F20221082002
:1039500000F0D4FF4FF40571302000F0CFFF43F2A8
:103960001571312000F0CAFF40F20461322000F0EE
:10397000C5FF40F61661332000F0C0FF42F211216E
:10398000342000F0BBFF4FF4A851352000F0B6FF03
:1039900048F20751362000F0B1FF41F207413720CD
:1039A00000F0ACFF41F20341382000F0A7FF2021D6
:1039B000392000F0A3FF1A21902000F09FFF002182
:1039C000102000F09BFF0721112000F097FF00213D
:1039D000122000F093FF0021132000F08FFF14202D
:1039E00001F03AF94FF4E661102000F087FF40F251
:1039F0003711112000F082FF142001F02DF94FF44F
:103A0000DC71122000F07AFF142001F025F900E0AB
:103A100083E04FF47061132000F070FF80212A20B2
:103A200000F06CFF4821292000F068FF142001F00D
:103A300013F94FF48071012000F060FF4FF4E06152
:103A4000022000F05BFF41F23801032000F056FF36
:103A500040F20221082000F051FF00210A2000F06E
:103A60004DFF00210C2000F049FF00210D2000F047
:103A700045FF30210E2000F041FF0021502000F0D2
:103A80003DFFEF21512000F039FF0021522000F0CE
:103A900035FF40F23F11532000F030FF4FF41C512E
:103AA000602000F02BFF0121612000F027FF0021A2
:103AB0006A2000F023FF1121902000F01FFF4FF437
:103AC000C061922000F01AFF40F20241932000F002
:103AD00015FF0221942000F011FF142001F0BCF822
:103AE0000121072000F00AFF142001F0B5F8612140
:103AF000072000F003FF40F27311072000F0FEFEE4
:103B00000021202000F0FAFE0021212000F0F6FE26
:103B10002221002000F0F2FE10E37A488088A0F510
:103B2000454105397DD1084600F0E8FE00210846F0
:103B300000F0E4FE142001F08FF80021084600F0A8
:103B4000DDFE0021084600F0D9FE0021084600F005
:103B5000D5FE0021084600F0D1FE0121A42000F08E
:103B6000CDFE142001F078F84FF41C51602000F0D5
:103B7000C5FE40F60601082000F0C0FE40F20371C9
:103B8000302000F0BBFE0121312000F0B7FE0421FF
:103B9000322000F0B3FE4FF48171332000F0AEFE0E
:103BA0004FF44071342000F0A9FE40F2031135209B
:103BB00000F0A4FE1F21362000F0A0FE40F20371A9
:103BC000372000F09BFE0121382000F097FE0421F1
:103BD000392000F093FE1521902000F08FFE4FF465
:103BE0008261102000F08AFE40F24721112000F08F
:103BF00085FE4FF4DE71122000F080FE4FF460610C
:103C0000132000F07BFE782001F026F84FF480713D
:103C1000012000F073FE4FF40071022000F06EFEF0
:103C200000E050E041F23001032000F067FE08217F
:103C30000A2000F063FE00210C2000F05FFE20212E
:103C40000E2000F05BFE00210F2000F057FE002147
:103C5000202000F053FE0021212000F04FFE3D21E6
:103C60002A2000F04BFE142000F0F6FF2D21292021
:103C700000F044FE0021502000F040FE4DF2EF0124
:103C8000512000F03BFE0021522000F037FE40F2B0
:103C90003F11532000F032FE0021612000F02EFE83
:103CA00000216A2000F02AFE4FF44071922000F0BB
:103CB00025FE0521932000F021FE4FF4807107209E
:103CC00000F01CFE3AE20F488088A0F58A413139A5
:103CD0007ED10121002000F011FE0A2000F0BCFF7F
:103CE00041F22861102000F009FE0E21122000F0A0
:103CF00005FE40F63921132000F000FE0A2000F0F6
:103D0000ABFF01E0D80000204021112000F0F6FDBB
:103D10005021152000F0F2FD0A2000F09DFF1E2129
:103D2000122000F0EBFD0A2000F096FF4FF4B15195
:103D3000102000F0E3FD42F63921132000F0DEFDF3
:103D40000A2000F089FF4FF48071012000F0D6FDB9
:103D50004FF44071022000F0D1FD41F23801032000
:103D600000F0CCFD40F20221082000F0C7FD082140
:103D70000A2000F0C3FD0021302000F0BFFD40F21A
:103D80000241312000F0BAFD4FF48371322000F07F
:103D9000B5FD40F20351332000F0B0FD4FF48271C5
:103DA000342000F0ABFD40F20131352000F0A6FDDB
:103DB00040F20771362000F0A1FD40F205313720B6
:103DC00000F09CFD4FF40271382000F097FD00E0F8
:103DD0003EE040F60B71392000F090FD02214120B9
:103DE00000F08CFD4FF41C51602000F087FD012194
:103DF000612000F083FD4FF40471902000F07EFDFF
:103E00004FF48571922000F079FD0421932000F099
:103E100075FD4FF48071A02000F070FD0121072096
:103E200000F06CFD2121072000F068FD2321072010
:103E300000F064FD3321072000F060FD40F23311F3
:103E4000072000F05BFD0021A02000F057FD75E188
:103E5000C0488088A0F58A4135397CD130211520B1
:103E600000F04CFD10219A2000F048FD2021112087
:103E700000F044FD43F22841102000F03FFD0221F4
:103E8000122000F03BFD41F23801132000F036FD16
:103E9000282000F0E1FE1221084600F02FFD282026
:103EA00000F0DAFE43F22041102000F027FD43F23B
:103EB0003801132000F022FD462000F0CDFE002145
:103EC000302000F01BFD40F20241312000F016FDD1
:103ED00040F20731322000F011FD4FF441713320E0
:103EE00000F00CFD0421342000F008FD40F20141F7
:103EF000352000F003FD40F20771362000F0FEFC93
:103F000040F20531372000F0F9FC4FF4C26138204F
:103F100000F0F4FC4FF4C261392000F0EFFC4FF4E4
:103F20008071012000F0EAFC4FF44071022000F0A3
:103F3000E5FC41F23001032000F0E0FC40F608010E
:103F4000082000F0DBFC08210A2000F0D7FC4FF429
:103F50001C51602000E033E000F0D0FC0121612022
:103F600000F0CCFC4FF49F71902000F0C7FC4FF4A0
:103F70008071922000F0C2FC4FF48071932000F019
:103F8000BDFC4FF44051A02000F0B8FC1021A3204C
:103F900000F0B4FC0121072000F0B0FC2121072033
:103FA00000F0ACFC2321072000F0A8FC33210720FF
:103FB00000F0A4FC40F23311072000F09FFCBDE0AC
:103FC00064488088A0F5C8516339F8D1E22000F038
:103FD00085FC1D2000F07CFC022000F079FC042010
:103FE00000F076FC642000F055FEE02000F076FC46
:103FF000012000F06DFC0A2000F02EFEE02000F011
:104000006DFC032000F064FC0C2000F025FE012074
:1040100000F064FC0A2000F01FFEE62000F05EFCC9
:104020002F2000F055FCFF2000F052FCFF2000F094
:104030004FFCB02000F052FC202000F049FC002092
:1040400000F046FC032000F043FC40F21F3000F07B
:104050003FFC012000F03CFC40F2DF1000F038FC97
:10406000002000F035FCB42000F038FC042000F003
:104070002FFC40F21F4000F02BFC002000F028FC39
:104080002E2000F025FC002000F022FC002000F093
:104090001FFC002000F01CFC002000F019FCB620E2
:1040A00000F01CFC022000F013FC4FF4037000F041
:1040B0000FFC002000F00CFC172000F009FC15207C
:1040C00000F006FC002000F003FC002000F000FCE3
:1040D000F02000F003FC032000F0FAFB292000F0A0
:1040E000FDFBD02000F0FAFB002000F0F1FBBE2029
:1040F00000F0F4FB052000F0EBFBFE2000F0E8FBF5
:10410000012000F0E5FB002000F0E2FB002000F0C1
:10411000DFFB002000F0DCFBB82000F0DFFB032019
:1041200000F0D6FB012000F0D3FBBA2000F0D6FB54
:10413000012000F0CDFB642000F032F80020FCF7F5
:1041400089FA0120044908604FF6FF70FCF74CFA29
:1041500010BD0000D80000208081214210B5024629
:10416000012000E050430B00A1F10104E1B2F9D1BC
:1041700010BD000008B5034800880090BDF800009D
:1041800008BD00000008006C10B50446204600F091
:10419000A5FB052000F07EFDFFF7ECFF10BD000041
:1041A0002DE9F0470446BE2000F098FB052000F002
:1041B0008FFB204600F0C1FE07464FF066320C4BE5
:1041C00000F0CEFE054600F08BFE1FFA80F948464F
:1041D00000F07EFB012000F07BFBFF2000F078FB6D
:1041E000002000F075FB002000F072FBBDE8F087B6
:1041F00066660440F0B5054600240027B74880797C
:1042000001280BD1B5488088A0F5D041043905D0EC
:10421000B2488088A0F5C851633908D1AF48807989
:10422000F0B9AE488088A0F5C851633918D1082D7F
:1042300015D2DFE805F00406080A0C0E1012062558
:104240000DE007250BE0042509E0052507E0012521
:1042500005E0002503E0032501E0022500BF00BFC3
:104260009E488088A0F51341413917D09B4880882B
:10427000A0F5D041043911D098488088A0F5A64116
:1042800010390BD095488088A0F5AA41103905D087
:1042900092488088A0F5C85163397DD1082D1CD281
:1042A000DFE805F00406090C0F12151800BF14E032
:1042B00044F0800411E044F040040EE044F0C004F7
:1042C0000BE044F0200408E044F0600405E044F012
:1042D000A00402E044F0E00400BF00BF7F488088F3
:1042E000A0F5AA41103902D14FF4585700E0362703
:1042F0007A488088A0F5A64110390DD0774880888B
:10430000A0F5AA41103907D074488088A0F5C8519B
:10431000633901D044F0080470488088A0F5D0418A
:10432000043901D144F002042146384600F0E6FA8F
:104330006A488088A0F5C85163391DD014F0200F59
:104340000DD06648008865494988884214DA634878
:104350000688408861490880084646800CE05F482E
:1043600000885E494988884206DD5C4806884088A6
:104370005A4908800846468058488088A0F5AA41D6
:10438000103954D15549488900F0A8FA002000F0AE
:104390009FFA5249498900E078E0491C88B200F050
:1043A0009DFA002000F094FA4C494989891C88B292
:1043B00000F094FA49490988491EC1F30F2000F022
:1043C00087FA46494989C91C88B200F087FA4349EF
:1043D0000978491EC8B200F07BFA4049888900F08C
:1043E0007DFA002000F074FA3C498989491C88B2A2
:1043F00000F074FA002000F06BFA38498989891CB2
:1044000088B200F06BFA35494988491EC1F30F2084
:1044100000F05EFA31498989C91C88B200F05EFA61
:104420002E498978491EC8B200F052FA55E02B494E
:10443000488900F053FA002000F04AFA002000F00A
:1044400047FA26490988491EC1F30F2000F040FAB7
:1044500022490978491EC8B200F03AFA1F498889F2
:1044600000F03CFA002000F033FA002000F030FAAF
:104470001A494988491EC1F30F2000F029FA17494B
:104480008978491EC8B200F023FA26E0082D1CD214
:10449000DFE805F004070A0D0F12151844F0300488
:1044A00013E044F0100410E044F020040DE000BFDD
:1044B0000BE044F0380408E044F0280405E044F040
:1044C000180402E044F0080400BF00BF032744F4CE
:1044D00080542146384600F011FAF0BDD800002083
:1044E00010B503460C4667488088A0F51341413952
:1044F00005D064488088A0F5A641103914D16149DF
:10450000488900F0EBF9181200F0E2F9D8B200F097
:10451000DFF95C49888900F0E1F9201200F0D8F950
:10452000E0B200F0D5F9ABE056488088A0F5D04164
:1045300004391DD153488079012804D1514800889D
:10454000401EC01A83B24F49488900F0C7F91812BB
:1045500000F0BEF9D8B200F0BBF94A49888900F0F2
:10456000BDF9201200F0B4F9E0B200F0B1F987E033
:1045700044488088A0F5C851633947D141488079C3
:10458000A8B940480088401EC01A83B23D494889F6
:1045900000F0A4F9002000F09BF9002000F098F949
:1045A000181200F095F9D8B200F092F916E03549EA
:1045B000488900F093F9181200F08AF9D8B200F097
:1045C00087F930490988491EC1F30F2000F080F9AE
:1045D0002C490978491EC8B200F07AF9294988891E
:1045E00000F07CF9201200F073F9E0B200F070F9ED
:1045F00024494988491EC1F30F2000F069F9214977
:104600008978491EC8B200F063F939E01D488088F6
:10461000A0F5AA41103920D11A49488900F05EF965
:10462000181200F055F917494989491C88B200F061
:1046300055F9D8B200F04CF91249888900F04EF9CA
:10464000201200F045F90F498989491C88B200F011
:1046500045F9E0B200F03CF912E00A4880790128FF
:1046600004D108480088401EC01A83B20549488911
:10467000194600F043F903498889214600F03EF9C4
:1046800010BD0000D80000202DE9F84F80460E46EE
:1046900017461C46B3462046E31704EB5373DB1062
:1046A00021464FEAE47C04EB5C7C4FEAEC0CB4EB73
:1046B000CC0C02D04FF0010C01E04FF0000C634431
:1046C000224604EBD27C4FEA6C0C03FB0CF3DBB20A
:1046D0000093A7F12000C7B2002556E00C2C07D1AB
:1046E00007EB47002B4901EB800010F8059013E021
:1046F000102C05D1284800EB071010F805900BE0AE
:10470000182C07D107EBC700244901EB800010F8F3
:10471000059001E0BDE8F88F4FF0000A2FE019F096
:10472000800F06D01E48028831464046FCF772F8DA
:1047300007E00A9828B91B48028831464046FCF732
:1047400069F84FEA49604FEA1069701C86B2164852
:104750004088B04200DCDDE7A6EB0B00A0420AD1A6
:104760005E4608F101001FFA80F80F4800884045B6
:1047700000DCCFE706E00AF1010000F0FF0ABAF121
:10478000080FCCDB00BF681CC5B200988542A5DBD2
:1047900000BFBFE7A2560008165B000806610008CC
:1047A0000C0000200E000020D80000202DE9F84762
:1047B00004460D4690469946DDE9096704F0FF0A74
:1047C00008EB04001FFA80F809EB05001FFA80F9D6
:1047D00016E0444502DB5446A81985B24D4500DB7E
:1047E00014E0002000903A78334629462046FFF72F
:1047F0004BFF304606EBD07104EB61018CB27F1C9D
:1048000038787E2802DC38782028E2DA00BFBDE85C
:10481000F8872DE9FF4F82B0064692461F46DDE934
:104820000F480020019000254DE0781B401EC1B2CA
:104830000A20FFF793FCBAFBF0F00A21B0FBF1F27B
:1048400001FB1209019850BB781EA84227DDB9F17F
:10485000000F22D118F0800F0FD008F00100A346FE
:1048600004EBDB71491001FB0561009088B223461F
:1048700030220399FFF708FF0EE008F00100A3467D
:1048800004EBDB71491001FB0561009088B22346FF
:1048900020220399FFF7F8FE13E00120019008F0B1
:1048A0000100A34604EBDB71491001FB0561009098
:1048B00088B209F13001CAB223460399FFF7E4FE3A
:1048C00000BF681CC5B2BD42AFDB06B0BDE8F08FCB
:1048D00001490880704700000008006C0149088009
:1048E00070470000FE07006C0248008902490880FA
:1048F00070470000D8000020FE07006C024A1080BC
:10490000921C118070470000FE07006C18488069F7
:1049100040F00800164988610846806940F0400070
:1049200088611448006820F4700012490860084645
:10493000006840F4401008600E480C30006840F0F9
:1049400020000C490C3108600B48006820F470000E
:10495000094908600846006840F4401008600648AD
:104960000C30006840F0200003490C3108607047AB
:1049700000100240000C01400018014070B50024F6
:10498000002508E00620FBF70DFE0444052000F09A
:1049900063F9681CC5B20A2DF4DB0A20B4FBF0F4FD
:1049A000B4F57A6F01D94FF47A642820B4FBF0F0A3
:1049B000C0F16400C0B270BD10B50748806940F016
:1049C0000400054988610548006820F0F0000349AB
:1049D0000860FBF747FD10BD0010024000080140D1
:1049E00000B5002015490861C86014204861002006
:1049F0008861C8610846006840F001000860084608
:104A000040680F4908400D494860084600680D4954
:104A100008400A4908600846006820F480200860C1
:104A20000846406820F4FE004860002088600021AD
:104A30004FF0006000F05AF800BD00000010024086
:104A40000000FFF8FFFFF6FE2DE9F041074688461B
:104A500014461D46284600F035F8C5F1040007FA53
:104A600000F60F20284100EA0800064306F00F0672
:104A7000E21704EBD26252114FF0E02303EB820203
:104A8000D2F800212146E31704EBD3635B11A4EBBA
:104A9000431C012303FA0CF31A432046E31704EBEB
:104AA000D3635B114FF0E02C0CEB8303C3F80021C0
:104AB0000348005D40EA061001490855BDE8F08151
:104AC00000E400E00146072323EA01021202054B3D
:104AD00018684FF6FF031840034B18431043014B6F
:104AE000186070470CED00E00000FA05024A0A4029
:104AF0000243024B1A60704780FFFF1F08ED00E081
:104B000030B504460025FFF76BFF1E48006840F4EF
:104B100080301C49086000BF1A480068400CFBD078
:104B20004FF4806017494860A01EC4B20846406830
:104B300040EA844048600846406840F4803048605D
:104B40001148006840F032000F4908600D480068C5
:104B500040F080700B49086000BF0A480068400EB2
:104B6000FBD00848406840F002000649486005E074
:104B700004484068C0F3870505F00305022DF7D10E
:104B800030BD000000100240002002401D4909888D
:104B900011F0200F34D01B49091D0988C8B21A49E9
:104BA000098811F4004F2BD11749098811F4804F5F
:104BB0000CD00A2803D00021134A118020E01249AA
:104BC000098841F40041104A118019E00D2806D1EE
:104BD0000D49098841F480410B4A118010E00A49CF
:104BE0000988C1F30D01094A505407490988491C35
:104BF000054A118011460988C72901DD002111806D
:104C00007047000000380140040000201000002020
:104C1000014600BF704700004FF0E021096921F014
:104C200004014FF0E0221161C21700EB5272D21062
:104C3000074B1A701946097801EB4102C2EBC1110A
:104C40004FF6FF7202EAC101024A1180704700006C
:104C5000000000200200002001460D4A12884A434D
:104C60004FF0E0235A6100229A6101221A6100BFCD
:104C70004FF0E022106910F0010F02D010F4803FD5
:104C8000F6D000224FF0E0231A619A6170470000CD
:104C90000200002001460D4A12784A434FF0E023FB
:104CA0005A6100229A6101221A6100BF4FF0E0228E
:104CB000106910F0010F02D010F4803FF6D00022EE
:104CC0004FF0E0231A619A61704700000000002055
:104CD00000BF054A128812F0400FFAD0C2B2024B50
:104CE0001B1D1A8070470000003801401CB50920C8
:104CF000FFF706FF4FF4E131482000F083F8482029
:104D0000FFF78AFFFFF702FEFBF742FEFFF754FEB4
:104D10004FF478402849088028A010210B46C8226B
:104D2000CDE9001032211E20FFF740FD27A0102101
:104D30000B46C822CDE9001046211E20FFF736FDA4
:104D400025A010210B46C822CDE900105A211E20B3
:104D5000FFF72CFD24A010210B46C822CDE900103E
:104D60006E211E20FFF722FD1F201349088021A07D
:104D700010210B46C822CDE9001082211E20FFF72A
:104D800015FD18E0FFF7FAFD04460020102103236B
:104D90002246CDE9001082216E20FFF73AFD184827
:104DA000006808B9012000E00020154908604FF0B4
:104DB000FA00FFF751FFE5E70C000020576172533E
:104DC0006869702053544D33320000004C53454EF7
:104DD000532054455354000041544F4D40414C49D9
:104DE000454E54454B000000323031352F312F31C4
:104DF000340000004C53454E535F56414C3A00007E
:104E0000948121422DE9F05F05460E46300100F005
:104E1000E9FA81462E4905FB01F000F0E3FA8246EB
:104E2000494600F0FDF90746384600F0BBFA84B267
:104E3000204600F0D7FA8346394600F0B3FB82469D
:104E40004FF0834100F0E2FA814600F0ABFA804671
:104E50004FF6FF7000EA041404EB080084B21D480A
:104E6000806940F004001B4988610846806940F46D
:104E7000804088611848006820F47F601649086007
:104E80000846006840F40B6008601248C06840F4AF
:104E900080401049C8600846C06820F48040C8605F
:104EA0000E480480001D008842F20C0108430B49A3
:104EB000091D08800846008840F020000880022371
:104EC000252203210846FFF7BFFDBDE8F09F000043
:104ED00040420F0000100240040801400838014021
:104EE0004FEA1153A3F58063D3F11E03A8BFD3F19A
:104EF000200C08DB4FF0004242EAC12252EA505235
:104F000032FA03F0704709420BD4102BC4BF0020C3
:104F1000704703F5787CBCF1FF3F05D04FF0FF30C0
:104F200070474FF00000704770B500F0C3F800BF45
:104F30004992248000207047F0E7B0FA80F310FA1D
:104F400003F10AD0C3F11D0303F580634FEA41501A
:104F50004FEA035202EBD12170474FF00000704737
:104F6000DFF848C170B51CEA111E1EBF1CEA1315FC
:104F70009EEA0C0F95EA0C0F00F06F8081EA0304A3
:104F800023EA4C134EEAD47E21EA4C1141F48011FD
:104F900043F48013AE44A1FB024CA0FB0365AEF1C9
:104FA0007F7E361955EB0C05A1FB034C4CF1000339
:104FB000A0FB021C16EB0C06654153F100030942ED
:104FC00018BF46F0010613F4007F0BD14FEA0331FE
:104FD0004FEA0530340341EA155140EA16506FF0AC
:104FE00003020AE04FEAC3214FEAC520F40241EA76
:104FF000555140EA56506FF0020202EB2E4201EB8F
:10500000025585EACE710AD05FEA440C18BF24F03D
:10501000004450F1000041F1000120EAD47040F258
:10502000FE7C624500D270BDA84214BF4FF08044A0
:105030004FF04044002E08BF0024BEF1806FA8BF8F
:10504000A1F1C041BDE8704080F282804FF00000C5
:1050500001F1C04101F0004170479EEA0C0F0CEADB
:10506000131518BF95EA0C0F06D04FF0000081EA27
:10507000030E0EF0004170BD00F01CF88900013EE7
:1050800000F007B800F009B84FEA430C5FEA5C5C37
:1050900008D081EA030100F05BB84FEA410C5FEAF7
:1050A0005C5CF6D14FF00000014970470000FF073B
:1050B0000000F87F0EF1020E2EF0030E5EF8046B76
:1050C000364205D4012A43EB030515F5001F12D81B
:1050D000012841EB010C1CF5001F0CD80ED14FEA42
:1050E000D17C15F5001F0CEB4C0C0CF1020C08BF29
:1050F0004CEBD37C04E04FF0080C01E04FEAD37C8A
:105100000CEB4C0526FA05F606F00706B6F1040C82
:1051100006D20EEB860CBDE870404CF0010C6047E7
:10512000DFE80CF0090B02024FF000414FF00000E5
:10513000A1F5002170BD19461046012851EB01046C
:1051400018BFD4F5001484BF002001F0004170BDE9
:105150000808A0F500114FEA3101704790EA010FED
:1051600048BF81F0004100F12E82421A3CBF801AF4
:1051700089184FEAD0524FF07F4C1CEA410FA2EB46
:10518000D15318BF9CEA026F00F03B804FF0004CF7
:105190004CEA00204CEA012121FA03FC10EB0C0C34
:1051A0001ED202F1FF325FEA1C2040EBC25038BF32
:1051B00070471CF07F0F4FEA400C18BFBCF17F4FC7
:1051C00038BF7047C3F12003994008BF20F00100A9
:1051D000BCF17F4F38BF7047A0F1C04000F0DDB98F
:1051E0004FEA3C00000A40EBC25028BF1CF0FF0F02
:1051F0004FEA400CE6D018BFBCF17F4F38BF704774
:10520000EAE79CEA026F05D010EA5C0F08BF00F0E5
:105210000040704710B500F07AF900BF64FBBE3E55
:105220004FF47F0C1CEAD0121EBF1CEAD11392EA85
:105230000C0F93EA0C0F00F0858090EA010F48BF35
:1052400042F4807240F4000C41F400002CF07F41E5
:1052500020F07F4000B58142A2EB03020FF2081C50
:10526000ACEB504EC0F100009EF800E04FEA4E0E4D
:1052700000FB0EFC38BF49004FEA2C1C02F5FA0275
:105280000CFB0EF34FEACE1E4FEA112C4FEAC12160
:105290000EEB635E42EB22420EFB0CFC4FEA1C530A
:1052A00000FB03114FEA112C4FEA01310EFB0CFCFD
:1052B0004FEADC4C00FB0C11C14228BF09184CEB33
:1052C00003335DF804EB10EB410143EBC250B2F540
:1052D0007C0F38BF704729D512F0F00F1CBF00F1CA
:1052E000C04000F00040704700818283848586873B
:1052F00088898B8C8D8E8F919293959697999A9C95
:105300009D9FA0A2A3A5A7A8AAACAEB0B2B3B5B703
:10531000B9BCBEC0C2C5C7C9CCCED1D4D7D9DCDFD9
:10532000E2E6E9ECF0F3F7FAFE0000004FEA400C89
:105330000CF1807CBCF17E4F28BF7047B0F1C040BB
:1053400000F02BB990EA010F0CEAD11348BF42F4E8
:105350008072624538BF634507D213F47F0F16D0C1
:1053600080EA010000F00040704710B500F0CFF86F
:10537000097EFC3E00F005B880EA010000F0004024
:10538000704780EA010000F0004000F006B912F416
:105390007F0F04BF0248704780EA010000F0FDB8AB
:1053A0000000C07FC10DD1F19E0206DB4FEA002351
:1053B00043F0004323FA02F07047004207D54FEA5A
:1053C0004001B1F1FE4F02D24FF00000704710B51E
:1053D00000F09DF849922480002070476FEA200079
:1053E00070470000B0FA80F310FA03F2C3F19D0396
:1053F0000AD0D90501EB1220530638BF704700F1DF
:10540000010008BF20F00100704700004FF47F0C3E
:105410001CEAD0121EBF1CEAD11392EA0C0F93EAC9
:105420000C0F00F0478090EA010F48BF42F48072F1
:105430004FF0004C4CEA00204CEA012102EB030241
:10544000A0FB0113A2F50002002918BF43F00103DD
:105450005B0028BF4FEA330342EB22425FEA132C82
:105460004CEBC2502EBFBCEB436FB2F57C0F7047C4
:105470004FEA036CBCF1004F08BF20F00100B2F509
:105480007C0F38BF70470BD582F0FF0212F5803FCA
:10549000C8BF704700F1C040D8BF00F0004070475F
:1054A00000F5000C5FEA4C0C48BF7047B0F1C040FB
:1054B00000F073B890EA010F0CEAD11348BF42F430
:1054C0008072624538BF634504D280EA010000F073
:1054D0000040704710B500F01AF800BF8900013E87
:1054E00000F007B800F009B85FEA410C5FEA1C6CF5
:1054F00008D080EA010000F050B85FEA400C5FEA93
:105500001C6CF6D14FF00040A0F5800070470EF102
:10551000020E2EF0030E5EF8044B244204D44FEA30
:105520004102B2F17F4F11D84FEA4003B3F17F4FF0
:105530000CD80ED14FEAD07CB2F17F4F0CEB4C0C63
:105540000CF1020C08BF4CEBD17C04E04FF0080CCE
:1055500001E04FEAD17C0CEB4C0324FA03F404F095
:105560000704B4F1040C06D20EEB840CBDE8104025
:105570004CF0010C6047DFE80CF0070802024FF026
:105580000040A0F5800010BD0846420018BFD2F1CF
:10559000807288BF00F0004010BDFF2141EAD0506A
:1055A000C005704780F0004090EA010F7FF5DDAD47
:1055B00081F0004100F007B890EA010F48BF81F088
:1055C00000413FF5D2AD421A04D882F00042A0EB70
:1055D000020011444FEAD0524FF07F4C1CEA410FB9
:1055E000A2EBD15318BF9CEA026F4AD04FF0004C97
:1055F0004CEA00204CEA012121FA03FCB0EB0C0C30
:105600000FD412F0FE0F36D05FEA4C001DD5001209
:1056100040EBC25038BF70471CF03F0F18BF7047B7
:105620000BE0A2F101025FEA1C2040EBC25038BF40
:1056300070471CF07F0F18BF7047C3F120039940DB
:1056400014BF401E20F00100704780084FEA12236B
:1056500008BF7047B0FA80FCA2EB0C02CCF1280C1A
:1056600060FA0CF093EA122F04BF00EBC2507047AF
:105670004FEAC3707047130A5FEADC1008BF704737
:10568000F6E79CEA026F04D010EA5C0F08BF002026
:10569000704710B5FFF73BFF40DFF63E81F000405A
:1056A0007047000000000000000000000000000043
:1056B00000003F40000000000000000030004000FB
:1056C00030004000000009000BC03D000BC03D0051
:1056D000090018C024407FE02240318000001800FB
:1056E00024C01B000D803240018003801C402740F5
:1056F0001C80074000401000600000000000000017
:1057000000000000000000001F802040402000003A
:10571000402020401F8000000000090006001F807C
:10572000060009000000040004003F80040004009B
:1057300000000010006000000000000000000400F5
:105740000400040004000400000000000040000009
:10575000000000000000002001C0060038004000EA
:1057600000001F802040204020401F8000000000DB
:1057700010403FC000400000000018C021402240FF
:1057800024401840000010802040244024401B800A
:10579000000002000D0011003FC0014000003C80ED
:1057A000244024402440238000001F8024402440C3
:1057B0003440038000003000200027C03800200063
:1057C00000001B802440244024401B8000001C005B
:1057D00022C0224022401F8000000000000008403C
:1057E0000000000000000000000004600000000055
:1057F0000000000004000A00110020804040090061
:105800000900090009000900000000004040208054
:1058100011000A0004001800200023402400180092
:1058200000001F802040274029401F40000000400A
:1058300007C039000F0001C0004020403FC0244095
:1058400024401B8000001F802040204020403080EA
:10585000000020403FC0204020401F80000020402A
:105860003FC024402E4030C0000020403FC02440B4
:105870002E00300000000F001080204022403380B6
:10588000020020403FC0040004003FC020402040F0
:1058900020403FC020402040000000602020202009
:1058A0003FC02000200020403FC024400B0030C0FB
:1058B000204020403FC020400040004000C03FC08A
:1058C0003C0003C03C003FC0000020403FC00C40F3
:1058D00023003FC020001F802040204020401F8028
:1058E000000020403FC024402400180000001F801A
:1058F0002140214020E01FA0000020403FC0244064
:10590000260019C0004018C02440244022403180A5
:105910000000300020403FC0204030000000200048
:105920003F80004000403F80200020003E0001C03A
:10593000070038002000380007C03C0007C03800CE
:105940000000204039C0060039C02040000020007F
:10595000384007C0384020000000304021C02640B9
:10596000384020C00000000000007FE040204020C0
:105970000000000070000C000380004000000000E8
:10598000402040207FE00000000000002000400098
:105990002000000000000010001000100010001097
:1059A00000100000000040000000000000000000A7
:1059B00002800540054003C0004020003FC0044075
:1059C00004400380000000000380044004400640BF
:1059D000000000000380044024403FC0004000005D
:1059E00003800540054003400000000004401FC044
:1059F000244024402000000002E0055005500650DD
:105A0000042020403FC00440040003C000400000C8
:105A1000044027C0004000000000001000100410E7
:105A200027E00000000020403FC00140070004C004
:105A30000440204020403FC000400040000007C01C
:105A4000040007C0040003C00000044007C0044075
:105A5000040003C0004000000380044004400380B1
:105A60000000041007F00450044003800000000010
:105A700003800440045007F00010044007C00240B7
:105A8000040004000000000006400540054004C07A
:105A90000000000004001F800440004000000400DB
:105AA00007800040044007C000400400070004C015
:105AB000018006000400060001C0070001C00600C6
:105AC0000000044006C0010006C0044000000410AD
:105AD000071004E00180060004000000044005C037
